{
  "_format": "hh-sol-artifact-1",
  "contractName": "NFTMarketplace",
  "sourceName": "contracts/NFTMarketplace.sol",
  "abi": [
    {
      "inputs": [],
      "stateMutability": "nonpayable",
      "type": "constructor"
    },
    {
      "anonymous": false,
      "inputs": [
        {
          "indexed": true,
          "internalType": "address",
          "name": "owner",
          "type": "address"
        },
        {
          "indexed": true,
          "internalType": "address",
          "name": "approved",
          "type": "address"
        },
        {
          "indexed": true,
          "internalType": "uint256",
          "name": "tokenId",
          "type": "uint256"
        }
      ],
      "name": "Approval",
      "type": "event"
    },
    {
      "anonymous": false,
      "inputs": [
        {
          "indexed": true,
          "internalType": "address",
          "name": "owner",
          "type": "address"
        },
        {
          "indexed": true,
          "internalType": "address",
          "name": "operator",
          "type": "address"
        },
        {
          "indexed": false,
          "internalType": "bool",
          "name": "approved",
          "type": "bool"
        }
      ],
      "name": "ApprovalForAll",
      "type": "event"
    },
    {
      "anonymous": false,
      "inputs": [
        {
          "indexed": false,
          "internalType": "uint256",
          "name": "_fromTokenId",
          "type": "uint256"
        },
        {
          "indexed": false,
          "internalType": "uint256",
          "name": "_toTokenId",
          "type": "uint256"
        }
      ],
      "name": "BatchMetadataUpdate",
      "type": "event"
    },
    {
      "anonymous": false,
      "inputs": [
        {
          "indexed": false,
          "internalType": "uint256",
          "name": "_tokenId",
          "type": "uint256"
        }
      ],
      "name": "MetadataUpdate",
      "type": "event"
    },
    {
      "anonymous": false,
      "inputs": [
        {
          "indexed": true,
          "internalType": "address",
          "name": "from",
          "type": "address"
        },
        {
          "indexed": true,
          "internalType": "address",
          "name": "to",
          "type": "address"
        },
        {
          "indexed": true,
          "internalType": "uint256",
          "name": "tokenId",
          "type": "uint256"
        }
      ],
      "name": "Transfer",
      "type": "event"
    },
    {
      "inputs": [
        {
          "internalType": "address",
          "name": "to",
          "type": "address"
        },
        {
          "internalType": "uint256",
          "name": "tokenId",
          "type": "uint256"
        }
      ],
      "name": "approve",
      "outputs": [],
      "stateMutability": "nonpayable",
      "type": "function"
    },
    {
      "inputs": [
        {
          "internalType": "address",
          "name": "owner",
          "type": "address"
        }
      ],
      "name": "balanceOf",
      "outputs": [
        {
          "internalType": "uint256",
          "name": "",
          "type": "uint256"
        }
      ],
      "stateMutability": "view",
      "type": "function"
    },
    {
      "inputs": [
        {
          "internalType": "string",
          "name": "tokenURI",
          "type": "string"
        },
        {
          "internalType": "uint256",
          "name": "price",
          "type": "uint256"
        }
      ],
      "name": "createToken",
      "outputs": [
        {
          "internalType": "uint256",
          "name": "",
          "type": "uint256"
        }
      ],
      "stateMutability": "payable",
      "type": "function"
    },
    {
      "inputs": [
        {
          "internalType": "uint256",
          "name": "tokenId",
          "type": "uint256"
        }
      ],
      "name": "executeSale",
      "outputs": [],
      "stateMutability": "payable",
      "type": "function"
    },
    {
      "inputs": [],
      "name": "getAllNFTs",
      "outputs": [
        {
          "components": [
            {
              "internalType": "uint256",
              "name": "tokenId",
              "type": "uint256"
            },
            {
              "internalType": "address payable",
              "name": "owner",
              "type": "address"
            },
            {
              "internalType": "address payable",
              "name": "seller",
              "type": "address"
            },
            {
              "internalType": "uint256",
              "name": "price",
              "type": "uint256"
            },
            {
              "internalType": "bool",
              "name": "currentlyListed",
              "type": "bool"
            }
          ],
          "internalType": "struct NFTMarketplace.ListedToken[]",
          "name": "",
          "type": "tuple[]"
        }
      ],
      "stateMutability": "view",
      "type": "function"
    },
    {
      "inputs": [
        {
          "internalType": "uint256",
          "name": "tokenId",
          "type": "uint256"
        }
      ],
      "name": "getApproved",
      "outputs": [
        {
          "internalType": "address",
          "name": "",
          "type": "address"
        }
      ],
      "stateMutability": "view",
      "type": "function"
    },
    {
      "inputs": [],
      "name": "getCurrentToken",
      "outputs": [
        {
          "internalType": "uint256",
          "name": "",
          "type": "uint256"
        }
      ],
      "stateMutability": "view",
      "type": "function"
    },
    {
      "inputs": [],
      "name": "getLatestIdTOListedToken",
      "outputs": [
        {
          "components": [
            {
              "internalType": "uint256",
              "name": "tokenId",
              "type": "uint256"
            },
            {
              "internalType": "address payable",
              "name": "owner",
              "type": "address"
            },
            {
              "internalType": "address payable",
              "name": "seller",
              "type": "address"
            },
            {
              "internalType": "uint256",
              "name": "price",
              "type": "uint256"
            },
            {
              "internalType": "bool",
              "name": "currentlyListed",
              "type": "bool"
            }
          ],
          "internalType": "struct NFTMarketplace.ListedToken",
          "name": "",
          "type": "tuple"
        }
      ],
      "stateMutability": "view",
      "type": "function"
    },
    {
      "inputs": [],
      "name": "getListPrice",
      "outputs": [
        {
          "internalType": "uint256",
          "name": "",
          "type": "uint256"
        }
      ],
      "stateMutability": "view",
      "type": "function"
    },
    {
      "inputs": [
        {
          "internalType": "uint256",
          "name": "tokenId",
          "type": "uint256"
        }
      ],
      "name": "getListedForTokenId",
      "outputs": [
        {
          "components": [
            {
              "internalType": "uint256",
              "name": "tokenId",
              "type": "uint256"
            },
            {
              "internalType": "address payable",
              "name": "owner",
              "type": "address"
            },
            {
              "internalType": "address payable",
              "name": "seller",
              "type": "address"
            },
            {
              "internalType": "uint256",
              "name": "price",
              "type": "uint256"
            },
            {
              "internalType": "bool",
              "name": "currentlyListed",
              "type": "bool"
            }
          ],
          "internalType": "struct NFTMarketplace.ListedToken",
          "name": "",
          "type": "tuple"
        }
      ],
      "stateMutability": "view",
      "type": "function"
    },
    {
      "inputs": [],
      "name": "getMyNFTs",
      "outputs": [
        {
          "components": [
            {
              "internalType": "uint256",
              "name": "tokenId",
              "type": "uint256"
            },
            {
              "internalType": "address payable",
              "name": "owner",
              "type": "address"
            },
            {
              "internalType": "address payable",
              "name": "seller",
              "type": "address"
            },
            {
              "internalType": "uint256",
              "name": "price",
              "type": "uint256"
            },
            {
              "internalType": "bool",
              "name": "currentlyListed",
              "type": "bool"
            }
          ],
          "internalType": "struct NFTMarketplace.ListedToken[]",
          "name": "",
          "type": "tuple[]"
        }
      ],
      "stateMutability": "view",
      "type": "function"
    },
    {
      "inputs": [
        {
          "internalType": "address",
          "name": "owner",
          "type": "address"
        },
        {
          "internalType": "address",
          "name": "operator",
          "type": "address"
        }
      ],
      "name": "isApprovedForAll",
      "outputs": [
        {
          "internalType": "bool",
          "name": "",
          "type": "bool"
        }
      ],
      "stateMutability": "view",
      "type": "function"
    },
    {
      "inputs": [],
      "name": "name",
      "outputs": [
        {
          "internalType": "string",
          "name": "",
          "type": "string"
        }
      ],
      "stateMutability": "view",
      "type": "function"
    },
    {
      "inputs": [
        {
          "internalType": "uint256",
          "name": "tokenId",
          "type": "uint256"
        }
      ],
      "name": "ownerOf",
      "outputs": [
        {
          "internalType": "address",
          "name": "",
          "type": "address"
        }
      ],
      "stateMutability": "view",
      "type": "function"
    },
    {
      "inputs": [
        {
          "internalType": "address",
          "name": "from",
          "type": "address"
        },
        {
          "internalType": "address",
          "name": "to",
          "type": "address"
        },
        {
          "internalType": "uint256",
          "name": "tokenId",
          "type": "uint256"
        }
      ],
      "name": "safeTransferFrom",
      "outputs": [],
      "stateMutability": "nonpayable",
      "type": "function"
    },
    {
      "inputs": [
        {
          "internalType": "address",
          "name": "from",
          "type": "address"
        },
        {
          "internalType": "address",
          "name": "to",
          "type": "address"
        },
        {
          "internalType": "uint256",
          "name": "tokenId",
          "type": "uint256"
        },
        {
          "internalType": "bytes",
          "name": "data",
          "type": "bytes"
        }
      ],
      "name": "safeTransferFrom",
      "outputs": [],
      "stateMutability": "nonpayable",
      "type": "function"
    },
    {
      "inputs": [
        {
          "internalType": "address",
          "name": "operator",
          "type": "address"
        },
        {
          "internalType": "bool",
          "name": "approved",
          "type": "bool"
        }
      ],
      "name": "setApprovalForAll",
      "outputs": [],
      "stateMutability": "nonpayable",
      "type": "function"
    },
    {
      "inputs": [
        {
          "internalType": "bytes4",
          "name": "interfaceId",
          "type": "bytes4"
        }
      ],
      "name": "supportsInterface",
      "outputs": [
        {
          "internalType": "bool",
          "name": "",
          "type": "bool"
        }
      ],
      "stateMutability": "view",
      "type": "function"
    },
    {
      "inputs": [],
      "name": "symbol",
      "outputs": [
        {
          "internalType": "string",
          "name": "",
          "type": "string"
        }
      ],
      "stateMutability": "view",
      "type": "function"
    },
    {
      "inputs": [
        {
          "internalType": "uint256",
          "name": "tokenId",
          "type": "uint256"
        }
      ],
      "name": "tokenURI",
      "outputs": [
        {
          "internalType": "string",
          "name": "",
          "type": "string"
        }
      ],
      "stateMutability": "view",
      "type": "function"
    },
    {
      "inputs": [
        {
          "internalType": "address",
          "name": "from",
          "type": "address"
        },
        {
          "internalType": "address",
          "name": "to",
          "type": "address"
        },
        {
          "internalType": "uint256",
          "name": "tokenId",
          "type": "uint256"
        }
      ],
      "name": "transferFrom",
      "outputs": [],
      "stateMutability": "nonpayable",
      "type": "function"
    },
    {
      "inputs": [
        {
          "internalType": "uint256",
          "name": "_listprice",
          "type": "uint256"
        }
      ],
      "name": "updateListPrice",
      "outputs": [],
      "stateMutability": "payable",
      "type": "function"
    }
  ],
  "bytecode": "0x608060405267016345785d8a0000600a553480156200001d57600080fd5b50604080518082018252600e81526d4e46544d61726b6574706c61636560901b6020808301918252835180850190945260048452634e46544d60e01b9084015281519192916200007091600091620000a1565b50805162000086906001906020840190620000a1565b5050600780546001600160a01b031916331790555062000184565b828054620000af9062000147565b90600052602060002090601f016020900481019282620000d357600085556200011e565b82601f10620000ee57805160ff19168380011785556200011e565b828001600101855582156200011e579182015b828111156200011e57825182559160200191906001019062000101565b506200012c92915062000130565b5090565b5b808211156200012c576000815560010162000131565b600181811c908216806200015c57607f821691505b602082108114156200017e57634e487b7160e01b600052602260045260246000fd5b50919050565b6120aa80620001946000396000f3fe6080604052600436106101355760003560e01c806372b3b620116100ab578063b88d4fde1161006f578063b88d4fde14610349578063c322579c14610369578063c87b56dd1461037c578063e0391b091461039c578063e985e9c5146103b1578063ef2d1746146103fa57600080fd5b806372b3b620146102ce57806395d89b41146102e157806398c3df16146102f65780639b1225c414610316578063a22cb4651461032957600080fd5b806328587b90116100fd57806328587b901461020b57806342842e0e1461022d578063629cb2e41461024d5780636352211e1461026f57806368f1945f1461028f57806370a08231146102ae57600080fd5b806301ffc9a71461013a57806306fdde031461016f578063081812fc14610191578063095ea7b3146101c957806323b872dd146101eb575b600080fd5b34801561014657600080fd5b5061015a610155366004611cc7565b61040f565b60405190151581526020015b60405180910390f35b34801561017b57600080fd5b5061018461043a565b6040516101669190611e93565b34801561019d57600080fd5b506101b16101ac366004611d55565b6104cc565b6040516001600160a01b039091168152602001610166565b3480156101d557600080fd5b506101e96101e4366004611c9e565b6104f3565b005b3480156101f757600080fd5b506101e9610206366004611bb0565b61060e565b34801561021757600080fd5b5061022061063f565b6040516101669190611f8a565b34801561023957600080fd5b506101e9610248366004611bb0565b6106b6565b34801561025957600080fd5b506102626106d1565b6040516101669190611e45565b34801561027b57600080fd5b506101b161028a366004611d55565b610916565b34801561029b57600080fd5b50600a545b604051908152602001610166565b3480156102ba57600080fd5b506102a06102c9366004611b64565b610976565b6102a06102dc366004611cff565b6109fc565b3480156102ed57600080fd5b50610184610adf565b34801561030257600080fd5b50610220610311366004611d55565b610aee565b6101e9610324366004611d55565b610b58565b34801561033557600080fd5b506101e9610344366004611c64565b610ca9565b34801561035557600080fd5b506101e9610364366004611beb565b610cb8565b6101e9610377366004611d55565b610cea565b34801561038857600080fd5b50610184610397366004611d55565b610d55565b3480156103a857600080fd5b50610262610e66565b3480156103bd57600080fd5b5061015a6103cc366004611b7e565b6001600160a01b03918216600090815260056020908152604080832093909416825291909152205460ff1690565b34801561040657600080fd5b506102a0610fad565b60006001600160e01b03198216632483248360e11b1480610434575061043482610fbd565b92915050565b60606000805461044990611fdc565b80601f016020809104026020016040519081016040528092919081815260200182805461047590611fdc565b80156104c25780601f10610497576101008083540402835291602001916104c2565b820191906000526020600020905b8154815290600101906020018083116104a557829003601f168201915b5050505050905090565b60006104d78261100d565b506000908152600460205260409020546001600160a01b031690565b60006104fe82610916565b9050806001600160a01b0316836001600160a01b031614156105715760405162461bcd60e51b815260206004820152602160248201527f4552433732313a20617070726f76616c20746f2063757272656e74206f776e656044820152603960f91b60648201526084015b60405180910390fd5b336001600160a01b038216148061058d575061058d81336103cc565b6105ff5760405162461bcd60e51b815260206004820152603d60248201527f4552433732313a20617070726f76652063616c6c6572206973206e6f7420746f60448201527f6b656e206f776e6572206f7220617070726f76656420666f7220616c6c0000006064820152608401610568565b610609838361106f565b505050565b61061833826110dd565b6106345760405162461bcd60e51b815260040161056890611ea6565b61060983838361115b565b610647611a0b565b600061065260085490565b6000908152600b6020908152604091829020825160a0810184528154815260018201546001600160a01b03908116938201939093526002820154909216928201929092526003820154606082015260049091015460ff161515608082015292915050565b61060983838360405180602001604052806000815250610cb8565b606060006106de60085490565b905060008060005b838110156107765733600b60006106fe846001611f98565b81526020810191909152604001600020600101546001600160a01b03161480610751575033600b6000610732846001611f98565b81526020810191909152604001600020600201546001600160a01b0316145b15610764578261076081612017565b9350505b8061076e81612017565b9150506106e6565b5060008267ffffffffffffffff8111156107a057634e487b7160e01b600052604160045260246000fd5b6040519080825280602002602001820160405280156107d957816020015b6107c6611a0b565b8152602001906001900390816107be5790505b50905060005b8481101561090d5733600b60006107f7846001611f98565b81526020810191909152604001600020600101546001600160a01b0316148061084a575033600b600061082b846001611f98565b81526020810191909152604001600020600201546001600160a01b0316145b156108fb57600061085c826001611f98565b6000818152600b6020908152604091829020825160a0810184528154815260018201546001600160a01b039081169382019390935260028201549092169282019290925260038201546060820152600482015460ff1615156080820152855192935090918590879081106108e057634e487b7160e01b600052603260045260246000fd5b60209081029190910101526108f6600186611f98565b945050505b8061090581612017565b9150506107df565b50949350505050565b6000818152600260205260408120546001600160a01b0316806104345760405162461bcd60e51b8152602060048201526018602482015277115490cdcc8c4e881a5b9d985b1a59081d1bdad95b88125160421b6044820152606401610568565b60006001600160a01b0382166109e05760405162461bcd60e51b815260206004820152602960248201527f4552433732313a2061646472657373207a65726f206973206e6f7420612076616044820152683634b21037bbb732b960b91b6064820152608401610568565b506001600160a01b031660009081526003602052604090205490565b6000600a543414610a4f5760405162461bcd60e51b815260206004820152601960248201527f53656e6420656e6f75676820657468657220746f206c697374000000000000006044820152606401610568565b60008211610a9f5760405162461bcd60e51b815260206004820152601f60248201527f4d616b6520737572652074686520707269636520697320706f736974697665006044820152606401610568565b610aad600880546001019055565b6000610ab860085490565b9050610ac433826112bf565b610ace81856112d9565b610ad881846113ab565b9392505050565b60606001805461044990611fdc565b610af6611a0b565b506000908152600b6020908152604091829020825160a0810184528154815260018201546001600160a01b03908116938201939093526002820154909216928201929092526003820154606082015260049091015460ff161515608082015290565b6000818152600b6020526040902060030154348114610bd25760405162461bcd60e51b815260206004820152603060248201527f506c6561736520656e7465722074686520636f727265637420616d6f756e742060448201526f746f206d616b6520707572636861736560801b6064820152608401610568565b6000828152600b602052604090206002810180546004909201805460ff191660011790556001600160a01b03198216331790556001600160a01b0316610c1c600980546001019055565b610c2730338561115b565b610c3130846104f3565b600754600a546040516001600160a01b039092169181156108fc0291906000818181858888f19350505050158015610c6d573d6000803e3d6000fd5b506040516001600160a01b038216903480156108fc02916000818181858888f19350505050158015610ca3573d6000803e3d6000fd5b50505050565b610cb4338383611448565b5050565b610cc233836110dd565b610cde5760405162461bcd60e51b815260040161056890611ea6565b610ca384848484611517565b6007546001600160a01b03163314610d505760405162461bcd60e51b815260206004820152602360248201527f4f6e6c79206f776e65722063616e20757064617465206c697374696e6720707260448201526269636560e81b6064820152608401610568565b600a55565b6060610d608261100d565b60008281526006602052604081208054610d7990611fdc565b80601f0160208091040260200160405190810160405280929190818152602001828054610da590611fdc565b8015610df25780601f10610dc757610100808354040283529160200191610df2565b820191906000526020600020905b815481529060010190602001808311610dd557829003601f168201915b505050505090506000610e1060408051602081019091526000815290565b9050805160001415610e23575092915050565b815115610e55578082604051602001610e3d929190611dd9565b60405160208183030381529060405292505050919050565b610e5e8461154a565b949350505050565b60606000610e7360085490565b905060008167ffffffffffffffff811115610e9e57634e487b7160e01b600052604160045260246000fd5b604051908082528060200260200182016040528015610ed757816020015b610ec4611a0b565b815260200190600190039081610ebc5790505b5090506000805b83811015610fa4576000610ef3826001611f98565b6000818152600b6020908152604091829020825160a0810184528154815260018201546001600160a01b039081169382019390935260028201549092169282019290925260038201546060820152600482015460ff161515608082015286519293509091869086908110610f7757634e487b7160e01b600052603260045260246000fd5b6020908102919091010152610f8d600185611f98565b935050508080610f9c90612017565b915050610ede565b50909392505050565b6000610fb860085490565b905090565b60006001600160e01b031982166380ac58cd60e01b1480610fee57506001600160e01b03198216635b5e139f60e01b145b8061043457506301ffc9a760e01b6001600160e01b0319831614610434565b6000818152600260205260409020546001600160a01b031661106c5760405162461bcd60e51b8152602060048201526018602482015277115490cdcc8c4e881a5b9d985b1a59081d1bdad95b88125160421b6044820152606401610568565b50565b600081815260046020526040902080546001600160a01b0319166001600160a01b03841690811790915581906110a482610916565b6001600160a01b03167f8c5be1e5ebec7d5bd14f71427d1e84f3dd0314c0f7b2291e5b200ac8c7c3b92560405160405180910390a45050565b6000806110e983610916565b9050806001600160a01b0316846001600160a01b0316148061113057506001600160a01b0380821660009081526005602090815260408083209388168352929052205460ff165b80610e5e5750836001600160a01b0316611149846104cc565b6001600160a01b031614949350505050565b826001600160a01b031661116e82610916565b6001600160a01b0316146111945760405162461bcd60e51b815260040161056890611f45565b6001600160a01b0382166111f65760405162461bcd60e51b8152602060048201526024808201527f4552433732313a207472616e7366657220746f20746865207a65726f206164646044820152637265737360e01b6064820152608401610568565b826001600160a01b031661120982610916565b6001600160a01b03161461122f5760405162461bcd60e51b815260040161056890611f45565b600081815260046020908152604080832080546001600160a01b03199081169091556001600160a01b0387811680865260038552838620805460001901905590871680865283862080546001019055868652600290945282852080549092168417909155905184937fddf252ad1be2c89b69c2b068fc378daa952ba7f163c4a11628f55a4df523b3ef91a4505050565b610cb48282604051806020016040528060008152506115bd565b6000828152600260205260409020546001600160a01b03166113545760405162461bcd60e51b815260206004820152602e60248201527f45524337323155524953746f726167653a2055524920736574206f66206e6f6e60448201526d32bc34b9ba32b73a103a37b5b2b760911b6064820152608401610568565b6000828152600660209081526040909120825161137392840190611a39565b506040518281527ff8e1a15aba9398e019f0b49df1a4fde98ee17ae345cb5f6b5e2c27f5033e8ce79060200160405180910390a15050565b6040805160a081018252838152306020808301828152338486018181526060860188815260016080880181815260008c8152600b9097529890952096518755925193860180546001600160a01b039586166001600160a01b03199182161790915590516002870180549190951691161790925551600384015592516004909201805492151560ff1990931692909217909155610cb491908461115b565b816001600160a01b0316836001600160a01b031614156114aa5760405162461bcd60e51b815260206004820152601960248201527f4552433732313a20617070726f766520746f2063616c6c6572000000000000006044820152606401610568565b6001600160a01b03838116600081815260056020908152604080832094871680845294825291829020805460ff191686151590811790915591519182527f17307eab39ab6107e8899845ad3d59bd9653f200f220920489ca2b5937696c31910160405180910390a3505050565b61152284848461115b565b61152e848484846115f0565b610ca35760405162461bcd60e51b815260040161056890611ef3565b60606115558261100d565b600061156c60408051602081019091526000815290565b9050600081511161158c5760405180602001604052806000815250610ad8565b80611596846116fd565b6040516020016115a7929190611dd9565b6040516020818303038152906040529392505050565b6115c783836117a8565b6115d460008484846115f0565b6106095760405162461bcd60e51b815260040161056890611ef3565b60006001600160a01b0384163b156116f257604051630a85bd0160e11b81526001600160a01b0385169063150b7a0290611634903390899088908890600401611e08565b602060405180830381600087803b15801561164e57600080fd5b505af192505050801561167e575060408051601f3d908101601f1916820190925261167b91810190611ce3565b60015b6116d8573d8080156116ac576040519150601f19603f3d011682016040523d82523d6000602084013e6116b1565b606091505b5080516116d05760405162461bcd60e51b815260040161056890611ef3565b805181602001fd5b6001600160e01b031916630a85bd0160e11b149050610e5e565b506001949350505050565b6060600061170a83611933565b600101905060008167ffffffffffffffff81111561173857634e487b7160e01b600052604160045260246000fd5b6040519080825280601f01601f191660200182016040528015611762576020820181803683370190505b5090508181016020015b600019016f181899199a1a9b1b9c1cb0b131b232b360811b600a86061a8153600a850494508461179b576117a0565b61176c565b509392505050565b6001600160a01b0382166117fe5760405162461bcd60e51b815260206004820181905260248201527f4552433732313a206d696e7420746f20746865207a65726f20616464726573736044820152606401610568565b6000818152600260205260409020546001600160a01b0316156118635760405162461bcd60e51b815260206004820152601c60248201527f4552433732313a20746f6b656e20616c7265616479206d696e746564000000006044820152606401610568565b6000818152600260205260409020546001600160a01b0316156118c85760405162461bcd60e51b815260206004820152601c60248201527f4552433732313a20746f6b656e20616c7265616479206d696e746564000000006044820152606401610568565b6001600160a01b038216600081815260036020908152604080832080546001019055848352600290915280822080546001600160a01b0319168417905551839291907fddf252ad1be2c89b69c2b068fc378daa952ba7f163c4a11628f55a4df523b3ef908290a45050565b60008072184f03e93ff9f4daa797ed6e38ed64bf6a1f0160401b83106119725772184f03e93ff9f4daa797ed6e38ed64bf6a1f0160401b830492506040015b6d04ee2d6d415b85acef8100000000831061199e576d04ee2d6d415b85acef8100000000830492506020015b662386f26fc1000083106119bc57662386f26fc10000830492506010015b6305f5e10083106119d4576305f5e100830492506008015b61271083106119e857612710830492506004015b606483106119fa576064830492506002015b600a83106104345760010192915050565b6040805160a08101825260008082526020820181905291810182905260608101829052608081019190915290565b828054611a4590611fdc565b90600052602060002090601f016020900481019282611a675760008555611aad565b82601f10611a8057805160ff1916838001178555611aad565b82800160010185558215611aad579182015b82811115611aad578251825591602001919060010190611a92565b50611ab9929150611abd565b5090565b5b80821115611ab95760008155600101611abe565b600067ffffffffffffffff80841115611aed57611aed612048565b604051601f8501601f19908116603f01168101908282118183101715611b1557611b15612048565b81604052809350858152868686011115611b2e57600080fd5b858560208301376000602087830101525050509392505050565b80356001600160a01b0381168114611b5f57600080fd5b919050565b600060208284031215611b75578081fd5b610ad882611b48565b60008060408385031215611b90578081fd5b611b9983611b48565b9150611ba760208401611b48565b90509250929050565b600080600060608486031215611bc4578081fd5b611bcd84611b48565b9250611bdb60208501611b48565b9150604084013590509250925092565b60008060008060808587031215611c00578081fd5b611c0985611b48565b9350611c1760208601611b48565b925060408501359150606085013567ffffffffffffffff811115611c39578182fd5b8501601f81018713611c49578182fd5b611c5887823560208401611ad2565b91505092959194509250565b60008060408385031215611c76578182fd5b611c7f83611b48565b915060208301358015158114611c93578182fd5b809150509250929050565b60008060408385031215611cb0578182fd5b611cb983611b48565b946020939093013593505050565b600060208284031215611cd8578081fd5b8135610ad88161205e565b600060208284031215611cf4578081fd5b8151610ad88161205e565b60008060408385031215611d11578182fd5b823567ffffffffffffffff811115611d27578283fd5b8301601f81018513611d37578283fd5b611d4685823560208401611ad2565b95602094909401359450505050565b600060208284031215611d66578081fd5b5035919050565b60008151808452611d85816020860160208601611fb0565b601f01601f19169290920160200192915050565b805182526020808201516001600160a01b039081169184019190915260408083015190911690830152606080820151908301526080908101511515910152565b60008351611deb818460208801611fb0565b835190830190611dff818360208801611fb0565b01949350505050565b6001600160a01b0385811682528416602082015260408101839052608060608201819052600090611e3b90830184611d6d565b9695505050505050565b6020808252825182820181905260009190848201906040850190845b81811015611e8757611e74838551611d99565b9284019260a09290920191600101611e61565b50909695505050505050565b602081526000610ad86020830184611d6d565b6020808252602d908201527f4552433732313a2063616c6c6572206973206e6f7420746f6b656e206f776e6560408201526c1c881bdc88185c1c1c9bdd9959609a1b606082015260800190565b60208082526032908201527f4552433732313a207472616e7366657220746f206e6f6e20455243373231526560408201527131b2b4bb32b91034b6b83632b6b2b73a32b960711b606082015260800190565b60208082526025908201527f4552433732313a207472616e736665722066726f6d20696e636f72726563742060408201526437bbb732b960d91b606082015260800190565b60a081016104348284611d99565b60008219821115611fab57611fab612032565b500190565b60005b83811015611fcb578181015183820152602001611fb3565b83811115610ca35750506000910152565b600181811c90821680611ff057607f821691505b6020821081141561201157634e487b7160e01b600052602260045260246000fd5b50919050565b600060001982141561202b5761202b612032565b5060010190565b634e487b7160e01b600052601160045260246000fd5b634e487b7160e01b600052604160045260246000fd5b6001600160e01b03198116811461106c57600080fdfea2646970667358221220906453ae1a1792922f7064b8389a875f88e0f5b90d67b7320fe8ae10950297fa64736f6c63430008040033",
  "linkReferences": {},
  "deployedLinkReferences": {}
}